{
  "_format": "hh-sol-artifact-1",
  "contractName": "SimpleContractSOL",
  "sourceName": "sol_contracts/SimpleContractSOL.sol",
  "abi": [
    {
      "inputs": [
        {
          "internalType": "address",
          "name": "stupidContract",
          "type": "address"
        },
        {
          "internalType": "uint256",
          "name": "index",
          "type": "uint256"
        }
      ],
      "name": "getStupidAddress",
      "outputs": [
        {
          "internalType": "address",
          "name": "",
          "type": "address"
        }
      ],
      "stateMutability": "view",
      "type": "function"
    },
    {
      "inputs": [
        {
          "internalType": "address",
          "name": "stupidContract",
          "type": "address"
        },
        {
          "internalType": "uint256",
          "name": "index",
          "type": "uint256"
        }
      ],
      "name": "getStupidPublicAddress",
      "outputs": [
        {
          "internalType": "address",
          "name": "",
          "type": "address"
        }
      ],
      "stateMutability": "view",
      "type": "function"
    },
    {
      "inputs": [
        {
          "internalType": "address",
          "name": "stupidContract",
          "type": "address"
        },
        {
          "internalType": "address",
          "name": "searchedAddress",
          "type": "address"
        }
      ],
      "name": "getStupidStruct",
      "outputs": [
        {
          "components": [
            {
              "internalType": "address[]",
              "name": "structAddress",
              "type": "address[]"
            },
            {
              "internalType": "uint256",
              "name": "latest_change",
              "type": "uint256"
            }
          ],
          "internalType": "struct ArrayAndNumber",
          "name": "",
          "type": "tuple"
        }
      ],
      "stateMutability": "view",
      "type": "function"
    }
  ],
  "bytecode": "0x608060405234801561001057600080fd5b50610790806100206000396000f3fe608060405234801561001057600080fd5b50600436106100415760003560e01c80637cb0c73514610046578063cda5ee2014610076578063ef1aad48146100a6575b600080fd5b610060600480360381019061005b9190610467565b6100d6565b60405161006d91906105d3565b60405180910390f35b610090600480360381019061008b919061042b565b610169565b60405161009d91906105ee565b60405180910390f35b6100c060048036038101906100bb9190610467565b610207565b6040516100cd91906105d3565b60405180910390f35b60008273ffffffffffffffffffffffffffffffffffffffff1663b93f9b0a836040518263ffffffff1660e01b81526004016101119190610610565b60206040518083038186803b15801561012957600080fd5b505afa15801561013d573d6000803e3d6000fd5b505050506040513d601f19601f820116820180604052508101906101619190610402565b905092915050565b61017161029a565b8273ffffffffffffffffffffffffffffffffffffffff1663fe20bc01836040518263ffffffff1660e01b81526004016101aa91906105d3565b60006040518083038186803b1580156101c257600080fd5b505afa1580156101d6573d6000803e3d6000fd5b505050506040513d6000823e3d601f19601f820116820180604052508101906101ff91906104a3565b905092915050565b60008273ffffffffffffffffffffffffffffffffffffffff1663e209c7a3836040518263ffffffff1660e01b81526004016102429190610610565b60206040518083038186803b15801561025a57600080fd5b505afa15801561026e573d6000803e3d6000fd5b505050506040513d601f19601f820116820180604052508101906102929190610402565b905092915050565b604051806040016040528060608152602001600081525090565b60006102c76102c28461065c565b61062b565b905080838252602082019050828560208602820111156102e657600080fd5b60005b8581101561031657816102fc8882610335565b8452602084019350602083019250506001810190506102e9565b5050509392505050565b60008135905061032f8161072c565b92915050565b6000815190506103448161072c565b92915050565b600082601f83011261035b57600080fd5b815161036b8482602086016102b4565b91505092915050565b60006040828403121561038657600080fd5b610390604061062b565b9050600082015167ffffffffffffffff8111156103ac57600080fd5b6103b88482850161034a565b60008301525060206103cc848285016103ed565b60208301525092915050565b6000813590506103e781610743565b92915050565b6000815190506103fc81610743565b92915050565b60006020828403121561041457600080fd5b600061042284828501610335565b91505092915050565b6000806040838503121561043e57600080fd5b600061044c85828601610320565b925050602061045d85828601610320565b9150509250929050565b6000806040838503121561047a57600080fd5b600061048885828601610320565b9250506020610499858286016103d8565b9150509250929050565b6000602082840312156104b557600080fd5b600082015167ffffffffffffffff8111156104cf57600080fd5b6104db84828501610374565b91505092915050565b60006104f083836104fc565b60208301905092915050565b610505816106c1565b82525050565b610514816106c1565b82525050565b600061052582610698565b61052f81856106b0565b935061053a83610688565b8060005b8381101561056b57815161055288826104e4565b975061055d836106a3565b92505060018101905061053e565b5085935050505092915050565b60006040830160008301518482036000860152610595828261051a565b91505060208301516105aa60208601826105b5565b508091505092915050565b6105be816106f3565b82525050565b6105cd816106f3565b82525050565b60006020820190506105e8600083018461050b565b92915050565b600060208201905081810360008301526106088184610578565b905092915050565b600060208201905061062560008301846105c4565b92915050565b6000604051905081810181811067ffffffffffffffff82111715610652576106516106fd565b5b8060405250919050565b600067ffffffffffffffff821115610677576106766106fd565b5b602082029050602081019050919050565b6000819050602082019050919050565b600081519050919050565b6000602082019050919050565b600082825260208201905092915050565b60006106cc826106d3565b9050919050565b600073ffffffffffffffffffffffffffffffffffffffff82169050919050565b6000819050919050565b7f4e487b7100000000000000000000000000000000000000000000000000000000600052604160045260246000fd5b610735816106c1565b811461074057600080fd5b50565b61074c816106f3565b811461075757600080fd5b5056fea264697066735822122018b4916ab392b93165b5c9706f66b83b0895bdc9e4ae10047e8eb4e2c73834e564736f6c63430008000033",
  "linkReferences": {},
  "deployedLinkReferences": {}
}