{
  "_format": "hh-sol-artifact-1",
  "contractName": "SimpleContractSOL",
  "sourceName": "sol_contracts/SimpleContractSOL.sol",
  "abi": [
    {
      "inputs": [
        {
          "internalType": "address",
          "name": "stupidContract",
          "type": "address"
        },
        {
          "internalType": "uint256",
          "name": "index",
          "type": "uint256"
        }
      ],
      "name": "getStupidAddress",
      "outputs": [
        {
          "internalType": "address",
          "name": "",
          "type": "address"
        }
      ],
      "stateMutability": "view",
      "type": "function"
    },
    {
      "inputs": [
        {
          "internalType": "address",
          "name": "stupidContract",
          "type": "address"
        },
        {
          "internalType": "uint256",
          "name": "index",
          "type": "uint256"
        }
      ],
      "name": "getStupidFixedSizeArrayAddress",
      "outputs": [
        {
          "internalType": "address",
          "name": "",
          "type": "address"
        }
      ],
      "stateMutability": "view",
      "type": "function"
    },
    {
      "inputs": [
        {
          "internalType": "address",
          "name": "stupidContract",
          "type": "address"
        },
        {
          "internalType": "uint256",
          "name": "nCoins",
          "type": "uint256"
        }
      ],
      "name": "getStupidFixedSizeArrayAddresses",
      "outputs": [
        {
          "internalType": "address[10]",
          "name": "",
          "type": "address[10]"
        }
      ],
      "stateMutability": "view",
      "type": "function"
    },
    {
      "inputs": [
        {
          "internalType": "address",
          "name": "stupidContract",
          "type": "address"
        },
        {
          "internalType": "uint256",
          "name": "index",
          "type": "uint256"
        }
      ],
      "name": "getStupidPublicAddress",
      "outputs": [
        {
          "internalType": "address",
          "name": "",
          "type": "address"
        }
      ],
      "stateMutability": "view",
      "type": "function"
    },
    {
      "inputs": [
        {
          "internalType": "address",
          "name": "stupidContract",
          "type": "address"
        },
        {
          "internalType": "address",
          "name": "searchedAddress",
          "type": "address"
        }
      ],
      "name": "getStupidStruct",
      "outputs": [
        {
          "components": [
            {
              "internalType": "address[]",
              "name": "structAddress",
              "type": "address[]"
            },
            {
              "internalType": "uint256",
              "name": "latest_change",
              "type": "uint256"
            }
          ],
          "internalType": "struct ArrayAndNumber",
          "name": "",
          "type": "tuple"
        }
      ],
      "stateMutability": "view",
      "type": "function"
    }
  ],
  "bytecode": "0x608060405234801561001057600080fd5b50610d18806100206000396000f3fe608060405234801561001057600080fd5b50600436106100575760003560e01c806318665cc21461005c5780635dd19b1d1461008c5780637cb0c735146100bc578063cda5ee20146100ec578063ef1aad481461011c575b600080fd5b610076600480360381019061007191906108d7565b61014c565b6040516100839190610a9a565b60405180910390f35b6100a660048036038101906100a191906108d7565b6101df565b6040516100b39190610ab5565b60405180910390f35b6100d660048036038101906100d191906108d7565b610523565b6040516100e39190610a9a565b60405180910390f35b6101066004803603810190610101919061089b565b6105b6565b6040516101139190610ad1565b60405180910390f35b610136600480360381019061013191906108d7565b610654565b6040516101439190610a9a565b60405180910390f35b60008273ffffffffffffffffffffffffffffffffffffffff166312399d88836040518263ffffffff1660e01b81526004016101879190610af3565b60206040518083038186803b15801561019f57600080fd5b505afa1580156101b3573d6000803e3d6000fd5b505050506040513d601f19601f820116820180604052508101906101d79190610872565b905092915050565b6101e76106e7565b6000604051806101400160405280600073ffffffffffffffffffffffffffffffffffffffff1673ffffffffffffffffffffffffffffffffffffffff168152602001600073ffffffffffffffffffffffffffffffffffffffff1673ffffffffffffffffffffffffffffffffffffffff168152602001600073ffffffffffffffffffffffffffffffffffffffff1673ffffffffffffffffffffffffffffffffffffffff168152602001600073ffffffffffffffffffffffffffffffffffffffff1673ffffffffffffffffffffffffffffffffffffffff168152602001600073ffffffffffffffffffffffffffffffffffffffff1673ffffffffffffffffffffffffffffffffffffffff168152602001600073ffffffffffffffffffffffffffffffffffffffff1673ffffffffffffffffffffffffffffffffffffffff168152602001600073ffffffffffffffffffffffffffffffffffffffff1673ffffffffffffffffffffffffffffffffffffffff168152602001600073ffffffffffffffffffffffffffffffffffffffff1673ffffffffffffffffffffffffffffffffffffffff168152602001600073ffffffffffffffffffffffffffffffffffffffff1673ffffffffffffffffffffffffffffffffffffffff168152602001600073ffffffffffffffffffffffffffffffffffffffff1673ffffffffffffffffffffffffffffffffffffffff16815250905060005b600a811015610518578381141561040c57610518565b8473ffffffffffffffffffffffffffffffffffffffff166312399d88826040518263ffffffff1660e01b81526004016104459190610af3565b60206040518083038186803b15801561045d57600080fd5b505afa158015610471573d6000803e3d6000fd5b505050506040513d601f19601f820116820180604052508101906104959190610872565b8282600a81106104ce577f4e487b7100000000000000000000000000000000000000000000000000000000600052603260045260246000fd5b602002019073ffffffffffffffffffffffffffffffffffffffff16908173ffffffffffffffffffffffffffffffffffffffff1681525050808061051090610c0d565b9150506103f6565b508091505092915050565b60008273ffffffffffffffffffffffffffffffffffffffff1663b93f9b0a836040518263ffffffff1660e01b815260040161055e9190610af3565b60206040518083038186803b15801561057657600080fd5b505afa15801561058a573d6000803e3d6000fd5b505050506040513d601f19601f820116820180604052508101906105ae9190610872565b905092915050565b6105be61070a565b8273ffffffffffffffffffffffffffffffffffffffff1663fe20bc01836040518263ffffffff1660e01b81526004016105f79190610a9a565b60006040518083038186803b15801561060f57600080fd5b505afa158015610623573d6000803e3d6000fd5b505050506040513d6000823e3d601f19601f8201168201806040525081019061064c9190610913565b905092915050565b60008273ffffffffffffffffffffffffffffffffffffffff1663e209c7a3836040518263ffffffff1660e01b815260040161068f9190610af3565b60206040518083038186803b1580156106a757600080fd5b505afa1580156106bb573d6000803e3d6000fd5b505050506040513d601f19601f820116820180604052508101906106df9190610872565b905092915050565b604051806101400160405280600a90602082028036833780820191505090505090565b604051806040016040528060608152602001600081525090565b600061073761073284610b3f565b610b0e565b9050808382526020820190508285602086028201111561075657600080fd5b60005b85811015610786578161076c88826107a5565b845260208401935060208301925050600181019050610759565b5050509392505050565b60008135905061079f81610cb4565b92915050565b6000815190506107b481610cb4565b92915050565b600082601f8301126107cb57600080fd5b81516107db848260208601610724565b91505092915050565b6000604082840312156107f657600080fd5b6108006040610b0e565b9050600082015167ffffffffffffffff81111561081c57600080fd5b610828848285016107ba565b600083015250602061083c8482850161085d565b60208301525092915050565b60008135905061085781610ccb565b92915050565b60008151905061086c81610ccb565b92915050565b60006020828403121561088457600080fd5b6000610892848285016107a5565b91505092915050565b600080604083850312156108ae57600080fd5b60006108bc85828601610790565b92505060206108cd85828601610790565b9150509250929050565b600080604083850312156108ea57600080fd5b60006108f885828601610790565b925050602061090985828601610848565b9150509250929050565b60006020828403121561092557600080fd5b600082015167ffffffffffffffff81111561093f57600080fd5b61094b848285016107e4565b91505092915050565b6000610960838361096c565b60208301905092915050565b61097581610bd1565b82525050565b61098481610bd1565b82525050565b61099381610b85565b61099d8184610bb5565b92506109a882610b6b565b8060005b838110156109d95781516109c08782610954565b96506109cb83610b9b565b9250506001810190506109ac565b505050505050565b60006109ec82610b90565b6109f68185610bc0565b9350610a0183610b75565b8060005b83811015610a32578151610a198882610954565b9750610a2483610ba8565b925050600181019050610a05565b5085935050505092915050565b60006040830160008301518482036000860152610a5c82826109e1565b9150506020830151610a716020860182610a7c565b508091505092915050565b610a8581610c03565b82525050565b610a9481610c03565b82525050565b6000602082019050610aaf600083018461097b565b92915050565b600061014082019050610acb600083018461098a565b92915050565b60006020820190508181036000830152610aeb8184610a3f565b905092915050565b6000602082019050610b086000830184610a8b565b92915050565b6000604051905081810181811067ffffffffffffffff82111715610b3557610b34610c85565b5b8060405250919050565b600067ffffffffffffffff821115610b5a57610b59610c85565b5b602082029050602081019050919050565b6000819050919050565b6000819050602082019050919050565b6000600a9050919050565b600081519050919050565b6000602082019050919050565b6000602082019050919050565b600081905092915050565b600082825260208201905092915050565b6000610bdc82610be3565b9050919050565b600073ffffffffffffffffffffffffffffffffffffffff82169050919050565b6000819050919050565b6000610c1882610c03565b91507fffffffffffffffffffffffffffffffffffffffffffffffffffffffffffffffff821415610c4b57610c4a610c56565b5b600182019050919050565b7f4e487b7100000000000000000000000000000000000000000000000000000000600052601160045260246000fd5b7f4e487b7100000000000000000000000000000000000000000000000000000000600052604160045260246000fd5b610cbd81610bd1565b8114610cc857600080fd5b50565b610cd481610c03565b8114610cdf57600080fd5b5056fea26469706673582212203465972ce08b5c8c37d2a8d03d468037a29809f6f8901182357a540aea9938b664736f6c63430008000033",
  "linkReferences": {},
  "deployedLinkReferences": {}
}