{
  "_format": "hh-sol-artifact-1",
  "contractName": "SimpleContractSOL",
  "sourceName": "sol_contracts/SimpleContractSOL.sol",
  "abi": [
    {
      "inputs": [
        {
          "internalType": "address",
          "name": "stupidContract",
          "type": "address"
        }
      ],
      "name": "getSimpleData",
      "outputs": [
        {
          "internalType": "address[10]",
          "name": "",
          "type": "address[10]"
        }
      ],
      "stateMutability": "view",
      "type": "function"
    },
    {
      "inputs": [
        {
          "internalType": "address",
          "name": "stupidContract",
          "type": "address"
        },
        {
          "internalType": "uint256",
          "name": "index",
          "type": "uint256"
        }
      ],
      "name": "getStupidAddress",
      "outputs": [
        {
          "internalType": "address",
          "name": "",
          "type": "address"
        }
      ],
      "stateMutability": "view",
      "type": "function"
    },
    {
      "inputs": [
        {
          "internalType": "address",
          "name": "stupidContract",
          "type": "address"
        },
        {
          "internalType": "uint256",
          "name": "index",
          "type": "uint256"
        }
      ],
      "name": "getStupidFixedSizeArrayAddress",
      "outputs": [
        {
          "internalType": "address",
          "name": "",
          "type": "address"
        }
      ],
      "stateMutability": "view",
      "type": "function"
    },
    {
      "inputs": [
        {
          "internalType": "address",
          "name": "stupidContract",
          "type": "address"
        },
        {
          "internalType": "uint256",
          "name": "nCoins",
          "type": "uint256"
        }
      ],
      "name": "getStupidFixedSizeArrayAddresses",
      "outputs": [
        {
          "internalType": "address[10]",
          "name": "",
          "type": "address[10]"
        }
      ],
      "stateMutability": "view",
      "type": "function"
    },
    {
      "inputs": [
        {
          "internalType": "address",
          "name": "stupidContract",
          "type": "address"
        },
        {
          "internalType": "uint256",
          "name": "index",
          "type": "uint256"
        }
      ],
      "name": "getStupidPublicAddress",
      "outputs": [
        {
          "internalType": "address",
          "name": "",
          "type": "address"
        }
      ],
      "stateMutability": "view",
      "type": "function"
    },
    {
      "inputs": [
        {
          "internalType": "address",
          "name": "stupidContract",
          "type": "address"
        },
        {
          "internalType": "address",
          "name": "searchedAddress",
          "type": "address"
        }
      ],
      "name": "getStupidStruct",
      "outputs": [
        {
          "components": [
            {
              "internalType": "address[]",
              "name": "structAddress",
              "type": "address[]"
            },
            {
              "internalType": "uint256",
              "name": "latest_change",
              "type": "uint256"
            }
          ],
          "internalType": "struct ArrayAndNumber",
          "name": "",
          "type": "tuple"
        }
      ],
      "stateMutability": "view",
      "type": "function"
    },
    {
      "inputs": [
        {
          "internalType": "address",
          "name": "",
          "type": "address"
        }
      ],
      "name": "simple_data",
      "outputs": [
        {
          "internalType": "uint256",
          "name": "latest_update",
          "type": "uint256"
        }
      ],
      "stateMutability": "view",
      "type": "function"
    },
    {
      "inputs": [
        {
          "internalType": "address",
          "name": "stupidContract",
          "type": "address"
        },
        {
          "internalType": "uint256",
          "name": "nCoins",
          "type": "uint256"
        }
      ],
      "name": "updateStupidFixedSizeArrayAddresses",
      "outputs": [
        {
          "internalType": "address[10]",
          "name": "",
          "type": "address[10]"
        }
      ],
      "stateMutability": "nonpayable",
      "type": "function"
    }
  ],
  "bytecode": "0x608060405234801561001057600080fd5b5061132b806100206000396000f3fe608060405234801561001057600080fd5b50600436106100885760003560e01c8063b2bf54251161005b578063b2bf54251461014d578063cda5ee201461017d578063ef1aad48146101ad578063f91a0527146101dd57610088565b806318665cc21461008d5780635dd19b1d146100bd5780637cb0c735146100ed5780637e579a2c1461011d575b600080fd5b6100a760048036038101906100a29190610eea565b61020d565b6040516100b491906110ad565b60405180910390f35b6100d760048036038101906100d29190610eea565b6102a0565b6040516100e491906110c8565b60405180910390f35b61010760048036038101906101029190610eea565b6105e4565b60405161011491906110ad565b60405180910390f35b61013760048036038101906101329190610e5c565b610677565b60405161014491906110c8565b60405180910390f35b61016760048036038101906101629190610e5c565b610739565b6040516101749190611106565b60405180910390f35b61019760048036038101906101929190610eae565b610757565b6040516101a491906110e4565b60405180910390f35b6101c760048036038101906101c29190610eea565b6107f5565b6040516101d491906110ad565b60405180910390f35b6101f760048036038101906101f29190610eea565b610888565b60405161020491906110c8565b60405180910390f35b60008273ffffffffffffffffffffffffffffffffffffffff166312399d88836040518263ffffffff1660e01b81526004016102489190611106565b60206040518083038186803b15801561026057600080fd5b505afa158015610274573d6000803e3d6000fd5b505050506040513d601f19601f820116820180604052508101906102989190610e85565b905092915050565b6102a8610cd1565b6000604051806101400160405280600073ffffffffffffffffffffffffffffffffffffffff1673ffffffffffffffffffffffffffffffffffffffff168152602001600073ffffffffffffffffffffffffffffffffffffffff1673ffffffffffffffffffffffffffffffffffffffff168152602001600073ffffffffffffffffffffffffffffffffffffffff1673ffffffffffffffffffffffffffffffffffffffff168152602001600073ffffffffffffffffffffffffffffffffffffffff1673ffffffffffffffffffffffffffffffffffffffff168152602001600073ffffffffffffffffffffffffffffffffffffffff1673ffffffffffffffffffffffffffffffffffffffff168152602001600073ffffffffffffffffffffffffffffffffffffffff1673ffffffffffffffffffffffffffffffffffffffff168152602001600073ffffffffffffffffffffffffffffffffffffffff1673ffffffffffffffffffffffffffffffffffffffff168152602001600073ffffffffffffffffffffffffffffffffffffffff1673ffffffffffffffffffffffffffffffffffffffff168152602001600073ffffffffffffffffffffffffffffffffffffffff1673ffffffffffffffffffffffffffffffffffffffff168152602001600073ffffffffffffffffffffffffffffffffffffffff1673ffffffffffffffffffffffffffffffffffffffff16815250905060005b600a8110156105d957838114156104cd576105d9565b8473ffffffffffffffffffffffffffffffffffffffff166312399d88826040518263ffffffff1660e01b81526004016105069190611106565b60206040518083038186803b15801561051e57600080fd5b505afa158015610532573d6000803e3d6000fd5b505050506040513d601f19601f820116820180604052508101906105569190610e85565b8282600a811061058f577f4e487b7100000000000000000000000000000000000000000000000000000000600052603260045260246000fd5b602002019073ffffffffffffffffffffffffffffffffffffffff16908173ffffffffffffffffffffffffffffffffffffffff168152505080806105d190611220565b9150506104b7565b508091505092915050565b60008273ffffffffffffffffffffffffffffffffffffffff1663b93f9b0a836040518263ffffffff1660e01b815260040161061f9190611106565b60206040518083038186803b15801561063757600080fd5b505afa15801561064b573d6000803e3d6000fd5b505050506040513d601f19601f8201168201806040525081019061066f9190610e85565b905092915050565b61067f610cd1565b6000808373ffffffffffffffffffffffffffffffffffffffff1673ffffffffffffffffffffffffffffffffffffffff168152602001908152602001600020600001600a806020026040519081016040528092919082600a801561072d576020028201915b8160009054906101000a900473ffffffffffffffffffffffffffffffffffffffff1673ffffffffffffffffffffffffffffffffffffffff16815260200190600101908083116106e3575b50505050509050919050565b600060205280600052604060002060009150905080600a0154905081565b61075f610cf4565b8273ffffffffffffffffffffffffffffffffffffffff1663fe20bc01836040518263ffffffff1660e01b815260040161079891906110ad565b60006040518083038186803b1580156107b057600080fd5b505afa1580156107c4573d6000803e3d6000fd5b505050506040513d6000823e3d601f19601f820116820180604052508101906107ed9190610f26565b905092915050565b60008273ffffffffffffffffffffffffffffffffffffffff1663e209c7a3836040518263ffffffff1660e01b81526004016108309190611106565b60206040518083038186803b15801561084857600080fd5b505afa15801561085c573d6000803e3d6000fd5b505050506040513d601f19601f820116820180604052508101906108809190610e85565b905092915050565b610890610cd1565b6000604051806101400160405280600073ffffffffffffffffffffffffffffffffffffffff1673ffffffffffffffffffffffffffffffffffffffff168152602001600073ffffffffffffffffffffffffffffffffffffffff1673ffffffffffffffffffffffffffffffffffffffff168152602001600073ffffffffffffffffffffffffffffffffffffffff1673ffffffffffffffffffffffffffffffffffffffff168152602001600073ffffffffffffffffffffffffffffffffffffffff1673ffffffffffffffffffffffffffffffffffffffff168152602001600073ffffffffffffffffffffffffffffffffffffffff1673ffffffffffffffffffffffffffffffffffffffff168152602001600073ffffffffffffffffffffffffffffffffffffffff1673ffffffffffffffffffffffffffffffffffffffff168152602001600073ffffffffffffffffffffffffffffffffffffffff1673ffffffffffffffffffffffffffffffffffffffff168152602001600073ffffffffffffffffffffffffffffffffffffffff1673ffffffffffffffffffffffffffffffffffffffff168152602001600073ffffffffffffffffffffffffffffffffffffffff1673ffffffffffffffffffffffffffffffffffffffff168152602001600073ffffffffffffffffffffffffffffffffffffffff1673ffffffffffffffffffffffffffffffffffffffff16815250905060005b600a811015610c805783811415610ab557610c80565b60008573ffffffffffffffffffffffffffffffffffffffff166312399d88836040518263ffffffff1660e01b8152600401610af09190611106565b60206040518083038186803b158015610b0857600080fd5b505afa158015610b1c573d6000803e3d6000fd5b505050506040513d601f19601f82011682018060405250810190610b409190610e85565b9050808383600a8110610b7c577f4e487b7100000000000000000000000000000000000000000000000000000000600052603260045260246000fd5b602002019073ffffffffffffffffffffffffffffffffffffffff16908173ffffffffffffffffffffffffffffffffffffffff1681525050806000808873ffffffffffffffffffffffffffffffffffffffff1673ffffffffffffffffffffffffffffffffffffffff16815260200190815260200160002060000183600a8110610c2d577f4e487b7100000000000000000000000000000000000000000000000000000000600052603260045260246000fd5b0160006101000a81548173ffffffffffffffffffffffffffffffffffffffff021916908373ffffffffffffffffffffffffffffffffffffffff160217905550508080610c7890611220565b915050610a9f565b50426000808673ffffffffffffffffffffffffffffffffffffffff1673ffffffffffffffffffffffffffffffffffffffff168152602001908152602001600020600a01819055508091505092915050565b604051806101400160405280600a90602082028036833780820191505090505090565b604051806040016040528060608152602001600081525090565b6000610d21610d1c84611152565b611121565b90508083825260208201905082856020860282011115610d4057600080fd5b60005b85811015610d705781610d568882610d8f565b845260208401935060208301925050600181019050610d43565b5050509392505050565b600081359050610d89816112c7565b92915050565b600081519050610d9e816112c7565b92915050565b600082601f830112610db557600080fd5b8151610dc5848260208601610d0e565b91505092915050565b600060408284031215610de057600080fd5b610dea6040611121565b9050600082015167ffffffffffffffff811115610e0657600080fd5b610e1284828501610da4565b6000830152506020610e2684828501610e47565b60208301525092915050565b600081359050610e41816112de565b92915050565b600081519050610e56816112de565b92915050565b600060208284031215610e6e57600080fd5b6000610e7c84828501610d7a565b91505092915050565b600060208284031215610e9757600080fd5b6000610ea584828501610d8f565b91505092915050565b60008060408385031215610ec157600080fd5b6000610ecf85828601610d7a565b9250506020610ee085828601610d7a565b9150509250929050565b60008060408385031215610efd57600080fd5b6000610f0b85828601610d7a565b9250506020610f1c85828601610e32565b9150509250929050565b600060208284031215610f3857600080fd5b600082015167ffffffffffffffff811115610f5257600080fd5b610f5e84828501610dce565b91505092915050565b6000610f738383610f7f565b60208301905092915050565b610f88816111e4565b82525050565b610f97816111e4565b82525050565b610fa681611198565b610fb081846111c8565b9250610fbb8261117e565b8060005b83811015610fec578151610fd38782610f67565b9650610fde836111ae565b925050600181019050610fbf565b505050505050565b6000610fff826111a3565b61100981856111d3565b935061101483611188565b8060005b8381101561104557815161102c8882610f67565b9750611037836111bb565b925050600181019050611018565b5085935050505092915050565b6000604083016000830151848203600086015261106f8282610ff4565b9150506020830151611084602086018261108f565b508091505092915050565b61109881611216565b82525050565b6110a781611216565b82525050565b60006020820190506110c26000830184610f8e565b92915050565b6000610140820190506110de6000830184610f9d565b92915050565b600060208201905081810360008301526110fe8184611052565b905092915050565b600060208201905061111b600083018461109e565b92915050565b6000604051905081810181811067ffffffffffffffff8211171561114857611147611298565b5b8060405250919050565b600067ffffffffffffffff82111561116d5761116c611298565b5b602082029050602081019050919050565b6000819050919050565b6000819050602082019050919050565b6000600a9050919050565b600081519050919050565b6000602082019050919050565b6000602082019050919050565b600081905092915050565b600082825260208201905092915050565b60006111ef826111f6565b9050919050565b600073ffffffffffffffffffffffffffffffffffffffff82169050919050565b6000819050919050565b600061122b82611216565b91507fffffffffffffffffffffffffffffffffffffffffffffffffffffffffffffffff82141561125e5761125d611269565b5b600182019050919050565b7f4e487b7100000000000000000000000000000000000000000000000000000000600052601160045260246000fd5b7f4e487b7100000000000000000000000000000000000000000000000000000000600052604160045260246000fd5b6112d0816111e4565b81146112db57600080fd5b50565b6112e781611216565b81146112f257600080fd5b5056fea26469706673582212204c03a2276b46e99af3d25e7bc7e4493c9934a864f77d0dd6d6c96162c8f3bf5c64736f6c63430008000033",
  "linkReferences": {},
  "deployedLinkReferences": {}
}