{
  "_format": "hh-sol-artifact-1",
  "contractName": "StupidContractSOL",
  "sourceName": "sol_contracts/StupidContractSOL.sol",
  "abi": [
    {
      "inputs": [
        {
          "internalType": "address",
          "name": "newAddress",
          "type": "address"
        }
      ],
      "name": "add0AddressNoAddressesInit",
      "outputs": [],
      "stateMutability": "nonpayable",
      "type": "function"
    },
    {
      "inputs": [
        {
          "internalType": "address",
          "name": "newAddress",
          "type": "address"
        }
      ],
      "name": "add0AddressWithAddressesInit",
      "outputs": [],
      "stateMutability": "nonpayable",
      "type": "function"
    },
    {
      "inputs": [
        {
          "internalType": "address",
          "name": "newAddress",
          "type": "address"
        },
        {
          "internalType": "address",
          "name": "oldAddress",
          "type": "address"
        }
      ],
      "name": "add0ToMappingNoInit",
      "outputs": [],
      "stateMutability": "nonpayable",
      "type": "function"
    },
    {
      "inputs": [
        {
          "internalType": "address",
          "name": "addressToAdd",
          "type": "address"
        }
      ],
      "name": "add0ToStuctToArrayNoStructInit",
      "outputs": [],
      "stateMutability": "nonpayable",
      "type": "function"
    },
    {
      "inputs": [
        {
          "internalType": "address",
          "name": "addressToAdd",
          "type": "address"
        }
      ],
      "name": "add0ToStuctToArrayStructInit",
      "outputs": [],
      "stateMutability": "nonpayable",
      "type": "function"
    },
    {
      "inputs": [
        {
          "internalType": "address",
          "name": "addressToAdd",
          "type": "address"
        }
      ],
      "name": "add0ToStuctToArrayStructInitWithUpdate",
      "outputs": [],
      "stateMutability": "nonpayable",
      "type": "function"
    },
    {
      "inputs": [
        {
          "internalType": "address",
          "name": "newAddress",
          "type": "address"
        }
      ],
      "name": "addPublicAddress",
      "outputs": [],
      "stateMutability": "nonpayable",
      "type": "function"
    },
    {
      "inputs": [
        {
          "internalType": "address",
          "name": "addressToAdd",
          "type": "address"
        },
        {
          "internalType": "address",
          "name": "indexAddress",
          "type": "address"
        }
      ],
      "name": "addToStructMappingNoInit",
      "outputs": [],
      "stateMutability": "nonpayable",
      "type": "function"
    },
    {
      "inputs": [
        {
          "internalType": "address",
          "name": "addressToAdd",
          "type": "address"
        },
        {
          "internalType": "address",
          "name": "indexAddress",
          "type": "address"
        }
      ],
      "name": "addToStructMappingWithInit",
      "outputs": [],
      "stateMutability": "nonpayable",
      "type": "function"
    },
    {
      "inputs": [
        {
          "internalType": "address",
          "name": "",
          "type": "address"
        }
      ],
      "name": "addressMapping",
      "outputs": [
        {
          "internalType": "address",
          "name": "",
          "type": "address"
        }
      ],
      "stateMutability": "view",
      "type": "function"
    },
    {
      "inputs": [
        {
          "internalType": "address",
          "name": "addressToAdd",
          "type": "address"
        }
      ],
      "name": "createArrayNoInit",
      "outputs": [
        {
          "internalType": "address[]",
          "name": "",
          "type": "address[]"
        }
      ],
      "stateMutability": "pure",
      "type": "function"
    },
    {
      "inputs": [
        {
          "internalType": "address",
          "name": "addressToAdd",
          "type": "address"
        }
      ],
      "name": "createArrayWithInit",
      "outputs": [
        {
          "internalType": "address[]",
          "name": "",
          "type": "address[]"
        }
      ],
      "stateMutability": "pure",
      "type": "function"
    },
    {
      "inputs": [],
      "name": "createEmptyStruct",
      "outputs": [
        {
          "internalType": "address[]",
          "name": "",
          "type": "address[]"
        },
        {
          "internalType": "uint256",
          "name": "",
          "type": "uint256"
        }
      ],
      "stateMutability": "view",
      "type": "function"
    },
    {
      "inputs": [
        {
          "internalType": "address",
          "name": "addressToAdd",
          "type": "address"
        }
      ],
      "name": "createStruct",
      "outputs": [
        {
          "internalType": "address[]",
          "name": "",
          "type": "address[]"
        },
        {
          "internalType": "uint256",
          "name": "",
          "type": "uint256"
        }
      ],
      "stateMutability": "view",
      "type": "function"
    },
    {
      "inputs": [
        {
          "internalType": "address",
          "name": "addressToAdd",
          "type": "address"
        }
      ],
      "name": "createStructMappingAndModify1",
      "outputs": [
        {
          "components": [
            {
              "internalType": "address[]",
              "name": "structAddress",
              "type": "address[]"
            },
            {
              "internalType": "uint256",
              "name": "latest_change",
              "type": "uint256"
            }
          ],
          "internalType": "struct StupidContractSOL.ArrayAndNumber",
          "name": "",
          "type": "tuple"
        }
      ],
      "stateMutability": "view",
      "type": "function"
    },
    {
      "inputs": [],
      "name": "createStructMappingAndModify2",
      "outputs": [
        {
          "components": [
            {
              "internalType": "address[]",
              "name": "structAddress",
              "type": "address[]"
            },
            {
              "internalType": "uint256",
              "name": "latest_change",
              "type": "uint256"
            }
          ],
          "internalType": "struct StupidContractSOL.ArrayAndNumber",
          "name": "",
          "type": "tuple"
        }
      ],
      "stateMutability": "view",
      "type": "function"
    },
    {
      "inputs": [
        {
          "internalType": "address",
          "name": "addressToAdd",
          "type": "address"
        }
      ],
      "name": "createStructReturnStruct",
      "outputs": [
        {
          "components": [
            {
              "internalType": "address[]",
              "name": "structAddress",
              "type": "address[]"
            },
            {
              "internalType": "uint256",
              "name": "latest_change",
              "type": "uint256"
            }
          ],
          "internalType": "struct StupidContractSOL.ArrayAndNumber",
          "name": "",
          "type": "tuple"
        }
      ],
      "stateMutability": "view",
      "type": "function"
    },
    {
      "inputs": [
        {
          "internalType": "uint256",
          "name": "",
          "type": "uint256"
        }
      ],
      "name": "fixedSizeArray",
      "outputs": [
        {
          "internalType": "address",
          "name": "",
          "type": "address"
        }
      ],
      "stateMutability": "view",
      "type": "function"
    },
    {
      "inputs": [
        {
          "internalType": "uint256",
          "name": "index",
          "type": "uint256"
        }
      ],
      "name": "getAddress",
      "outputs": [
        {
          "internalType": "address",
          "name": "",
          "type": "address"
        }
      ],
      "stateMutability": "view",
      "type": "function"
    },
    {
      "inputs": [
        {
          "internalType": "uint256",
          "name": "index",
          "type": "uint256"
        }
      ],
      "name": "getAddressUnsf",
      "outputs": [
        {
          "internalType": "address",
          "name": "",
          "type": "address"
        }
      ],
      "stateMutability": "view",
      "type": "function"
    },
    {
      "inputs": [],
      "name": "getAddressesLength",
      "outputs": [
        {
          "internalType": "uint256",
          "name": "",
          "type": "uint256"
        }
      ],
      "stateMutability": "view",
      "type": "function"
    },
    {
      "inputs": [
        {
          "internalType": "address",
          "name": "searchedAddress",
          "type": "address"
        }
      ],
      "name": "getFromMappingWithoutInit",
      "outputs": [
        {
          "internalType": "address",
          "name": "",
          "type": "address"
        }
      ],
      "stateMutability": "view",
      "type": "function"
    },
    {
      "inputs": [],
      "name": "getPublicAddressesLength",
      "outputs": [
        {
          "internalType": "uint256",
          "name": "",
          "type": "uint256"
        }
      ],
      "stateMutability": "view",
      "type": "function"
    },
    {
      "inputs": [
        {
          "internalType": "address",
          "name": "searchedAddress",
          "type": "address"
        }
      ],
      "name": "getStructFromMapping",
      "outputs": [
        {
          "components": [
            {
              "internalType": "address[]",
              "name": "structAddress",
              "type": "address[]"
            },
            {
              "internalType": "uint256",
              "name": "latest_change",
              "type": "uint256"
            }
          ],
          "internalType": "struct StupidContractSOL.ArrayAndNumber",
          "name": "",
          "type": "tuple"
        }
      ],
      "stateMutability": "view",
      "type": "function"
    },
    {
      "inputs": [
        {
          "internalType": "uint256",
          "name": "",
          "type": "uint256"
        }
      ],
      "name": "publicAddresses",
      "outputs": [
        {
          "internalType": "address",
          "name": "",
          "type": "address"
        }
      ],
      "stateMutability": "view",
      "type": "function"
    },
    {
      "inputs": [
        {
          "internalType": "address",
          "name": "newAddress",
          "type": "address"
        }
      ],
      "name": "pushAddress",
      "outputs": [],
      "stateMutability": "nonpayable",
      "type": "function"
    },
    {
      "inputs": [
        {
          "internalType": "address",
          "name": "newAddress",
          "type": "address"
        }
      ],
      "name": "pushPublicAddress",
      "outputs": [],
      "stateMutability": "nonpayable",
      "type": "function"
    },
    {
      "inputs": [
        {
          "internalType": "address",
          "name": "",
          "type": "address"
        }
      ],
      "name": "structMapping",
      "outputs": [
        {
          "internalType": "uint256",
          "name": "latest_change",
          "type": "uint256"
        }
      ],
      "stateMutability": "view",
      "type": "function"
    }
  ],
  "bytecode": "0x608060405234801561001057600080fd5b50611ee8806100206000396000f3fe608060405234801561001057600080fd5b50600436106101c45760003560e01c80638b18c1a8116100f9578063cbf78f4711610097578063e777f90911610071578063e777f9091461055f578063ef7bc28d1461057d578063f33fd2ac1461059b578063fe20bc01146105b7576101c4565b8063cbf78f47146104e0578063df407a4e146104fe578063e209c7a31461052f576101c4565b8063983cf0f1116100d3578063983cf0f11461045c5780639f52100c14610478578063b8d3436214610494578063b93f9b0a146104b0576101c4565b80638b18c1a8146103f45780638ba1066114610410578063909d807d1461042c576101c4565b806334ef551b116101665780633f442fa2116101405780633f442fa214610359578063515ac6c314610375578063567b83f5146103945780636d55edde146103c4576101c4565b806334ef551b146102f157806337f851221461030d57806338492bb714610329576101c4565b806308c0d491116101a257806308c0d49114610245578063121a1fec1461026157806312399d88146102915780631d832284146102c1576101c4565b80630338335e146101c9578063043532dc146101e55780630494cd9a14610215575b600080fd5b6101e360048036038101906101de9190611b31565b6105e7565b005b6101ff60048036038101906101fa9190611b6d565b6106f6565b60405161020c9190611d23565b60405180910390f35b61022f600480360381019061022a9190611b08565b610763565b60405161023c9190611d23565b60405180910390f35b61025f600480360381019061025a9190611b08565b610796565b005b61027b60048036038101906102769190611b08565b6108f2565b6040516102889190611d3e565b60405180910390f35b6102ab60048036038101906102a69190611b6d565b6109e6565b6040516102b89190611d23565b60405180910390f35b6102db60048036038101906102d69190611b08565b610a1c565b6040516102e89190611d23565b60405180910390f35b61030b60048036038101906103069190611b08565b610a85565b005b61032760048036038101906103229190611b08565b610aeb565b005b610343600480360381019061033e9190611b08565b610b71565b6040516103509190611d3e565b60405180910390f35b610373600480360381019061036e9190611b08565b610bf2565b005b61037d610dc6565b60405161038b929190611d60565b60405180910390f35b6103ae60048036038101906103a99190611b08565b610e64565b6040516103bb9190611db0565b60405180910390f35b6103de60048036038101906103d99190611b08565b610f78565b6040516103eb9190611db0565b60405180910390f35b61040e60048036038101906104099190611b31565b611094565b005b61042a60048036038101906104259190611b08565b611206565b005b61044660048036038101906104419190611b08565b611320565b6040516104539190611dd2565b60405180910390f35b61047660048036038101906104719190611b31565b61133e565b005b610492600480360381019061048d9190611b08565b6113c0565b005b6104ae60048036038101906104a99190611b08565b611426565b005b6104ca60048036038101906104c59190611b6d565b611542565b6040516104d79190611d23565b60405180910390f35b6104e86115f7565b6040516104f59190611dd2565b60405180910390f35b61051860048036038101906105139190611b08565b611603565b604051610526929190611d60565b60405180910390f35b61054960048036038101906105449190611b6d565b61171d565b6040516105569190611d23565b60405180910390f35b61056761175c565b6040516105749190611db0565b60405180910390f35b6105856117fd565b6040516105929190611dd2565b60405180910390f35b6105b560048036038101906105b09190611b08565b61180a565b005b6105d160048036038101906105cc9190611b08565b61192c565b6040516105de9190611db0565b60405180910390f35b42600760008373ffffffffffffffffffffffffffffffffffffffff1673ffffffffffffffffffffffffffffffffffffffff1681526020019081526020016000206001018190555081600760008373ffffffffffffffffffffffffffffffffffffffff1673ffffffffffffffffffffffffffffffffffffffff1681526020019081526020016000206000016000815481106106aa577f4e487b7100000000000000000000000000000000000000000000000000000000600052603260045260246000fd5b9060005260206000200160006101000a81548173ffffffffffffffffffffffffffffffffffffffff021916908373ffffffffffffffffffffffffffffffffffffffff1602179055505050565b6000808281548110610731577f4e487b7100000000000000000000000000000000000000000000000000000000600052603260045260246000fd5b9060005260206000200160009054906101000a900473ffffffffffffffffffffffffffffffffffffffff169050919050565b60056020528060005260406000206000915054906101000a900473ffffffffffffffffffffffffffffffffffffffff1681565b6000600167ffffffffffffffff8111156107d9577f4e487b7100000000000000000000000000000000000000000000000000000000600052604160045260246000fd5b6040519080825280602002602001820160405280156108075781602001602082028036833780820191505090505b5090508181600081518110610845577f4e487b7100000000000000000000000000000000000000000000000000000000600052603260045260246000fd5b602002602001019073ffffffffffffffffffffffffffffffffffffffff16908173ffffffffffffffffffffffffffffffffffffffff168152505060006040518060400160405280838152602001428152509050600681908060018154018082558091505060019003906000526020600020906002020160009091909190915060008201518160000190805190602001906108e0929190611a1d565b50602082015181600101555050505050565b60606000600167ffffffffffffffff811115610937577f4e487b7100000000000000000000000000000000000000000000000000000000600052604160045260246000fd5b6040519080825280602002602001820160405280156109655781602001602082028036833780820191505090505b50905082816000815181106109a3577f4e487b7100000000000000000000000000000000000000000000000000000000600052603260045260246000fd5b602002602001019073ffffffffffffffffffffffffffffffffffffffff16908173ffffffffffffffffffffffffffffffffffffffff168152505080915050919050565b600281600381106109f657600080fd5b016000915054906101000a900473ffffffffffffffffffffffffffffffffffffffff1681565b6000600560008373ffffffffffffffffffffffffffffffffffffffff1673ffffffffffffffffffffffffffffffffffffffff16815260200190815260200160002060009054906101000a900473ffffffffffffffffffffffffffffffffffffffff169050919050565b6000819080600181540180825580915050600190039060005260206000200160009091909190916101000a81548173ffffffffffffffffffffffffffffffffffffffff021916908373ffffffffffffffffffffffffffffffffffffffff16021790555050565b8060008081548110610b26577f4e487b7100000000000000000000000000000000000000000000000000000000600052603260045260246000fd5b9060005260206000200160006101000a81548173ffffffffffffffffffffffffffffffffffffffff021916908373ffffffffffffffffffffffffffffffffffffffff16021790555050565b6060808281600081518110610baf577f4e487b7100000000000000000000000000000000000000000000000000000000600052603260045260246000fd5b602002602001019073ffffffffffffffffffffffffffffffffffffffff16908173ffffffffffffffffffffffffffffffffffffffff168152505080915050919050565b6000600167ffffffffffffffff811115610c35577f4e487b7100000000000000000000000000000000000000000000000000000000600052604160045260246000fd5b604051908082528060200260200182016040528015610c635781602001602082028036833780820191505090505b50905060006040518060400160405280838152602001428152509050806006600081548110610cbb577f4e487b7100000000000000000000000000000000000000000000000000000000600052603260045260246000fd5b90600052602060002090600202016000820151816000019080519060200190610ce5929190611a1d565b5060208201518160010155905050826006600081548110610d2f577f4e487b7100000000000000000000000000000000000000000000000000000000600052603260045260246000fd5b9060005260206000209060020201600001600081548110610d79577f4e487b7100000000000000000000000000000000000000000000000000000000600052603260045260246000fd5b9060005260206000200160006101000a81548173ffffffffffffffffffffffffffffffffffffffff021916908373ffffffffffffffffffffffffffffffffffffffff160217905550505050565b60606000806040518060400160405280600167ffffffffffffffff811115610e17577f4e487b7100000000000000000000000000000000000000000000000000000000600052604160045260246000fd5b604051908082528060200260200182016040528015610e455781602001602082028036833780820191505090505b5081526020014281525090508060000151816020015192509250509091565b610e6c611aa7565b6000600167ffffffffffffffff811115610eaf577f4e487b7100000000000000000000000000000000000000000000000000000000600052604160045260246000fd5b604051908082528060200260200182016040528015610edd5781602001602082028036833780820191505090505b5090508281600081518110610f1b577f4e487b7100000000000000000000000000000000000000000000000000000000600052603260045260246000fd5b602002602001019073ffffffffffffffffffffffffffffffffffffffff16908173ffffffffffffffffffffffffffffffffffffffff1681525050600060405180604001604052808381526020014281525090508092505050919050565b610f80611aa7565b60006040518060400160405280600167ffffffffffffffff811115610fce577f4e487b7100000000000000000000000000000000000000000000000000000000600052604160045260246000fd5b604051908082528060200260200182016040528015610ffc5781602001602082028036833780820191505090505b50815260200142815250905042816020018181525050828160000151600081518110611051577f4e487b7100000000000000000000000000000000000000000000000000000000600052603260045260246000fd5b602002602001019073ffffffffffffffffffffffffffffffffffffffff16908173ffffffffffffffffffffffffffffffffffffffff168152505080915050919050565b6000600167ffffffffffffffff8111156110d7577f4e487b7100000000000000000000000000000000000000000000000000000000600052604160045260246000fd5b6040519080825280602002602001820160405280156111055781602001602082028036833780820191505090505b5090508281600081518110611143577f4e487b7100000000000000000000000000000000000000000000000000000000600052603260045260246000fd5b602002602001019073ffffffffffffffffffffffffffffffffffffffff16908173ffffffffffffffffffffffffffffffffffffffff16815250506000604051806040016040528083815260200142815250905080600760008573ffffffffffffffffffffffffffffffffffffffff1673ffffffffffffffffffffffffffffffffffffffff16815260200190815260200160002060008201518160000190805190602001906111f2929190611a1d565b506020820151816001015590505050505050565b60008080549050141561129a57600167ffffffffffffffff811115611254577f4e487b7100000000000000000000000000000000000000000000000000000000600052604160045260246000fd5b6040519080825280602002602001820160405280156112825781602001602082028036833780820191505090505b5060009080519060200190611298929190611a1d565b505b80600080815481106112d5577f4e487b7100000000000000000000000000000000000000000000000000000000600052603260045260246000fd5b9060005260206000200160006101000a81548173ffffffffffffffffffffffffffffffffffffffff021916908373ffffffffffffffffffffffffffffffffffffffff16021790555050565b60076020528060005260406000206000915090508060010154905081565b81600560008373ffffffffffffffffffffffffffffffffffffffff1673ffffffffffffffffffffffffffffffffffffffff16815260200190815260200160002060006101000a81548173ffffffffffffffffffffffffffffffffffffffff021916908373ffffffffffffffffffffffffffffffffffffffff1602179055505050565b6001819080600181540180825580915050600190039060005260206000200160009091909190916101000a81548173ffffffffffffffffffffffffffffffffffffffff021916908373ffffffffffffffffffffffffffffffffffffffff16021790555050565b600060018054905014156114bb57600167ffffffffffffffff811115611475577f4e487b7100000000000000000000000000000000000000000000000000000000600052604160045260246000fd5b6040519080825280602002602001820160405280156114a35781602001602082028036833780820191505090505b50600190805190602001906114b9929190611a1d565b505b8060016000815481106114f7577f4e487b7100000000000000000000000000000000000000000000000000000000600052603260045260246000fd5b9060005260206000200160006101000a81548173ffffffffffffffffffffffffffffffffffffffff021916908373ffffffffffffffffffffffffffffffffffffffff16021790555050565b6000816000805490501161158b576040517f08c379a000000000000000000000000000000000000000000000000000000000815260040161158290611d90565b60405180910390fd5b600082815481106115c5577f4e487b7100000000000000000000000000000000000000000000000000000000600052603260045260246000fd5b9060005260206000200160009054906101000a900473ffffffffffffffffffffffffffffffffffffffff169050919050565b60008080549050905090565b6060600080600167ffffffffffffffff811115611649577f4e487b7100000000000000000000000000000000000000000000000000000000600052604160045260246000fd5b6040519080825280602002602001820160405280156116775781602001602082028036833780820191505090505b50905083816000815181106116b5577f4e487b7100000000000000000000000000000000000000000000000000000000600052603260045260246000fd5b602002602001019073ffffffffffffffffffffffffffffffffffffffff16908173ffffffffffffffffffffffffffffffffffffffff16815250506000604051806040016040528083815260200142815250905080600001518160200151935093505050915091565b6001818154811061172d57600080fd5b906000526020600020016000915054906101000a900473ffffffffffffffffffffffffffffffffffffffff1681565b611764611aa7565b60006040518060400160405280600167ffffffffffffffff8111156117b2577f4e487b7100000000000000000000000000000000000000000000000000000000600052604160045260246000fd5b6040519080825280602002602001820160405280156117e05781602001602082028036833780820191505090505b508152602001428152509050428160200181815250508091505090565b6000600180549050905090565b426006600081548110611846577f4e487b7100000000000000000000000000000000000000000000000000000000600052603260045260246000fd5b906000526020600020906002020160010181905550806006600081548110611897577f4e487b7100000000000000000000000000000000000000000000000000000000600052603260045260246000fd5b90600052602060002090600202016000016000815481106118e1577f4e487b7100000000000000000000000000000000000000000000000000000000600052603260045260246000fd5b9060005260206000200160006101000a81548173ffffffffffffffffffffffffffffffffffffffff021916908373ffffffffffffffffffffffffffffffffffffffff16021790555050565b611934611aa7565b600760008373ffffffffffffffffffffffffffffffffffffffff1673ffffffffffffffffffffffffffffffffffffffff16815260200190815260200160002060405180604001604052908160008201805480602002602001604051908101604052809291908181526020018280548015611a0357602002820191906000526020600020905b8160009054906101000a900473ffffffffffffffffffffffffffffffffffffffff1673ffffffffffffffffffffffffffffffffffffffff16815260200190600101908083116119b9575b505050505081526020016001820154815250509050919050565b828054828255906000526020600020908101928215611a96579160200282015b82811115611a955782518260006101000a81548173ffffffffffffffffffffffffffffffffffffffff021916908373ffffffffffffffffffffffffffffffffffffffff16021790555091602001919060010190611a3d565b5b509050611aa39190611ac1565b5090565b604051806040016040528060608152602001600081525090565b5b80821115611ada576000816000905550600101611ac2565b5090565b600081359050611aed81611e84565b92915050565b600081359050611b0281611e9b565b92915050565b600060208284031215611b1a57600080fd5b6000611b2884828501611ade565b91505092915050565b60008060408385031215611b4457600080fd5b6000611b5285828601611ade565b9250506020611b6385828601611ade565b9150509250929050565b600060208284031215611b7f57600080fd5b6000611b8d84828501611af3565b91505092915050565b6000611ba28383611bae565b60208301905092915050565b611bb781611e48565b82525050565b611bc681611e48565b82525050565b6000611bd782611dfd565b611be18185611e15565b9350611bec83611ded565b8060005b83811015611c1d578151611c048882611b96565b9750611c0f83611e08565b925050600181019050611bf0565b5085935050505092915050565b6000611c3582611dfd565b611c3f8185611e26565b9350611c4a83611ded565b8060005b83811015611c7b578151611c628882611b96565b9750611c6d83611e08565b925050600181019050611c4e565b5085935050505092915050565b6000611c95601483611e37565b91507f6f7574206f6620616464726573732061727261790000000000000000000000006000830152602082019050919050565b60006040830160008301518482036000860152611ce58282611bcc565b9150506020830151611cfa6020860182611d05565b508091505092915050565b611d0e81611e7a565b82525050565b611d1d81611e7a565b82525050565b6000602082019050611d386000830184611bbd565b92915050565b60006020820190508181036000830152611d588184611c2a565b905092915050565b60006040820190508181036000830152611d7a8185611c2a565b9050611d896020830184611d14565b9392505050565b60006020820190508181036000830152611da981611c88565b9050919050565b60006020820190508181036000830152611dca8184611cc8565b905092915050565b6000602082019050611de76000830184611d14565b92915050565b6000819050602082019050919050565b600081519050919050565b6000602082019050919050565b600082825260208201905092915050565b600082825260208201905092915050565b600082825260208201905092915050565b6000611e5382611e5a565b9050919050565b600073ffffffffffffffffffffffffffffffffffffffff82169050919050565b6000819050919050565b611e8d81611e48565b8114611e9857600080fd5b50565b611ea481611e7a565b8114611eaf57600080fd5b5056fea2646970667358221220861a5a2e23442dc5e084f14c5479e3c9f9cda88b2001038060024ca079ecc99a64736f6c63430008000033",
  "linkReferences": {},
  "deployedLinkReferences": {}
}