{
  "_format": "hh-sol-artifact-1",
  "contractName": "StupidContractSOL",
  "sourceName": "sol_contracts/StupidContractSOL.sol",
  "abi": [
    {
      "inputs": [
        {
          "internalType": "address",
          "name": "newAddress",
          "type": "address"
        }
      ],
      "name": "add0AddressNoAddressesInit",
      "outputs": [],
      "stateMutability": "nonpayable",
      "type": "function"
    },
    {
      "inputs": [
        {
          "internalType": "address",
          "name": "newAddress",
          "type": "address"
        }
      ],
      "name": "add0AddressWithAddressesInit",
      "outputs": [],
      "stateMutability": "nonpayable",
      "type": "function"
    },
    {
      "inputs": [
        {
          "internalType": "address",
          "name": "newAddress",
          "type": "address"
        },
        {
          "internalType": "address",
          "name": "oldAddress",
          "type": "address"
        }
      ],
      "name": "add0ToMappingNoInit",
      "outputs": [],
      "stateMutability": "nonpayable",
      "type": "function"
    },
    {
      "inputs": [
        {
          "internalType": "address",
          "name": "addressToAdd",
          "type": "address"
        }
      ],
      "name": "add0ToStuctToArrayNoStructInit",
      "outputs": [],
      "stateMutability": "nonpayable",
      "type": "function"
    },
    {
      "inputs": [
        {
          "internalType": "address",
          "name": "addressToAdd",
          "type": "address"
        }
      ],
      "name": "add0ToStuctToArrayStructInit",
      "outputs": [],
      "stateMutability": "nonpayable",
      "type": "function"
    },
    {
      "inputs": [
        {
          "internalType": "address",
          "name": "addressToAdd",
          "type": "address"
        }
      ],
      "name": "add0ToStuctToArrayStructInitWithUpdate",
      "outputs": [],
      "stateMutability": "nonpayable",
      "type": "function"
    },
    {
      "inputs": [
        {
          "internalType": "address",
          "name": "newAddress",
          "type": "address"
        }
      ],
      "name": "addPublicAddress",
      "outputs": [],
      "stateMutability": "nonpayable",
      "type": "function"
    },
    {
      "inputs": [
        {
          "internalType": "address",
          "name": "addressToAdd",
          "type": "address"
        },
        {
          "internalType": "address",
          "name": "indexAddress",
          "type": "address"
        }
      ],
      "name": "addToStructMappingNoInit",
      "outputs": [],
      "stateMutability": "nonpayable",
      "type": "function"
    },
    {
      "inputs": [
        {
          "internalType": "address",
          "name": "addressToAdd",
          "type": "address"
        },
        {
          "internalType": "address",
          "name": "indexAddress",
          "type": "address"
        }
      ],
      "name": "addToStructMappingWithInit",
      "outputs": [],
      "stateMutability": "nonpayable",
      "type": "function"
    },
    {
      "inputs": [
        {
          "internalType": "address",
          "name": "",
          "type": "address"
        }
      ],
      "name": "addressMapping",
      "outputs": [
        {
          "internalType": "address",
          "name": "",
          "type": "address"
        }
      ],
      "stateMutability": "view",
      "type": "function"
    },
    {
      "inputs": [
        {
          "internalType": "address",
          "name": "addressToAdd",
          "type": "address"
        }
      ],
      "name": "createArrayNoInit",
      "outputs": [
        {
          "internalType": "address[]",
          "name": "",
          "type": "address[]"
        }
      ],
      "stateMutability": "pure",
      "type": "function"
    },
    {
      "inputs": [
        {
          "internalType": "address",
          "name": "addressToAdd",
          "type": "address"
        }
      ],
      "name": "createArrayWithInit",
      "outputs": [
        {
          "internalType": "address[]",
          "name": "",
          "type": "address[]"
        }
      ],
      "stateMutability": "pure",
      "type": "function"
    },
    {
      "inputs": [],
      "name": "createEmptyStruct",
      "outputs": [
        {
          "internalType": "address[]",
          "name": "",
          "type": "address[]"
        },
        {
          "internalType": "uint256",
          "name": "",
          "type": "uint256"
        }
      ],
      "stateMutability": "view",
      "type": "function"
    },
    {
      "inputs": [
        {
          "internalType": "address",
          "name": "addressToAdd",
          "type": "address"
        }
      ],
      "name": "createStruct",
      "outputs": [
        {
          "internalType": "address[]",
          "name": "",
          "type": "address[]"
        },
        {
          "internalType": "uint256",
          "name": "",
          "type": "uint256"
        }
      ],
      "stateMutability": "view",
      "type": "function"
    },
    {
      "inputs": [
        {
          "internalType": "address",
          "name": "addressToAdd",
          "type": "address"
        }
      ],
      "name": "createStructMappingAndModify1",
      "outputs": [
        {
          "components": [
            {
              "internalType": "address[]",
              "name": "structAddress",
              "type": "address[]"
            },
            {
              "internalType": "uint256",
              "name": "latest_change",
              "type": "uint256"
            }
          ],
          "internalType": "struct StupidContractSOL.ArrayAndNumber",
          "name": "",
          "type": "tuple"
        }
      ],
      "stateMutability": "view",
      "type": "function"
    },
    {
      "inputs": [],
      "name": "createStructMappingAndModify2",
      "outputs": [
        {
          "components": [
            {
              "internalType": "address[]",
              "name": "structAddress",
              "type": "address[]"
            },
            {
              "internalType": "uint256",
              "name": "latest_change",
              "type": "uint256"
            }
          ],
          "internalType": "struct StupidContractSOL.ArrayAndNumber",
          "name": "",
          "type": "tuple"
        }
      ],
      "stateMutability": "view",
      "type": "function"
    },
    {
      "inputs": [
        {
          "internalType": "address",
          "name": "addressToAdd",
          "type": "address"
        }
      ],
      "name": "createStructReturnStruct",
      "outputs": [
        {
          "components": [
            {
              "internalType": "address[]",
              "name": "structAddress",
              "type": "address[]"
            },
            {
              "internalType": "uint256",
              "name": "latest_change",
              "type": "uint256"
            }
          ],
          "internalType": "struct StupidContractSOL.ArrayAndNumber",
          "name": "",
          "type": "tuple"
        }
      ],
      "stateMutability": "view",
      "type": "function"
    },
    {
      "inputs": [
        {
          "internalType": "uint256",
          "name": "",
          "type": "uint256"
        }
      ],
      "name": "fixedSizeArray",
      "outputs": [
        {
          "internalType": "address",
          "name": "",
          "type": "address"
        }
      ],
      "stateMutability": "view",
      "type": "function"
    },
    {
      "inputs": [],
      "name": "fixedSizeLength",
      "outputs": [
        {
          "internalType": "uint256",
          "name": "",
          "type": "uint256"
        }
      ],
      "stateMutability": "view",
      "type": "function"
    },
    {
      "inputs": [
        {
          "internalType": "uint256",
          "name": "index",
          "type": "uint256"
        }
      ],
      "name": "getAddress",
      "outputs": [
        {
          "internalType": "address",
          "name": "",
          "type": "address"
        }
      ],
      "stateMutability": "view",
      "type": "function"
    },
    {
      "inputs": [
        {
          "internalType": "uint256",
          "name": "index",
          "type": "uint256"
        }
      ],
      "name": "getAddressUnsf",
      "outputs": [
        {
          "internalType": "address",
          "name": "",
          "type": "address"
        }
      ],
      "stateMutability": "view",
      "type": "function"
    },
    {
      "inputs": [],
      "name": "getAddressesLength",
      "outputs": [
        {
          "internalType": "uint256",
          "name": "",
          "type": "uint256"
        }
      ],
      "stateMutability": "view",
      "type": "function"
    },
    {
      "inputs": [
        {
          "internalType": "address",
          "name": "searchedAddress",
          "type": "address"
        }
      ],
      "name": "getFromMappingWithoutInit",
      "outputs": [
        {
          "internalType": "address",
          "name": "",
          "type": "address"
        }
      ],
      "stateMutability": "view",
      "type": "function"
    },
    {
      "inputs": [],
      "name": "getPublicAddressesLength",
      "outputs": [
        {
          "internalType": "uint256",
          "name": "",
          "type": "uint256"
        }
      ],
      "stateMutability": "view",
      "type": "function"
    },
    {
      "inputs": [
        {
          "internalType": "address",
          "name": "searchedAddress",
          "type": "address"
        }
      ],
      "name": "getStructFromMapping",
      "outputs": [
        {
          "components": [
            {
              "internalType": "address[]",
              "name": "structAddress",
              "type": "address[]"
            },
            {
              "internalType": "uint256",
              "name": "latest_change",
              "type": "uint256"
            }
          ],
          "internalType": "struct StupidContractSOL.ArrayAndNumber",
          "name": "",
          "type": "tuple"
        }
      ],
      "stateMutability": "view",
      "type": "function"
    },
    {
      "inputs": [
        {
          "internalType": "uint256",
          "name": "",
          "type": "uint256"
        }
      ],
      "name": "publicAddresses",
      "outputs": [
        {
          "internalType": "address",
          "name": "",
          "type": "address"
        }
      ],
      "stateMutability": "view",
      "type": "function"
    },
    {
      "inputs": [
        {
          "internalType": "address",
          "name": "newAddress",
          "type": "address"
        }
      ],
      "name": "pushAddress",
      "outputs": [],
      "stateMutability": "nonpayable",
      "type": "function"
    },
    {
      "inputs": [
        {
          "internalType": "address",
          "name": "newAddress",
          "type": "address"
        }
      ],
      "name": "pushFixedSize",
      "outputs": [],
      "stateMutability": "nonpayable",
      "type": "function"
    },
    {
      "inputs": [
        {
          "internalType": "address",
          "name": "newAddress",
          "type": "address"
        }
      ],
      "name": "pushPublicAddress",
      "outputs": [],
      "stateMutability": "nonpayable",
      "type": "function"
    },
    {
      "inputs": [
        {
          "internalType": "address",
          "name": "",
          "type": "address"
        }
      ],
      "name": "structMapping",
      "outputs": [
        {
          "internalType": "uint256",
          "name": "latest_change",
          "type": "uint256"
        }
      ],
      "stateMutability": "view",
      "type": "function"
    }
  ],
  "bytecode": "0x608060405234801561001057600080fd5b5061205b806100206000396000f3fe608060405234801561001057600080fd5b50600436106101da5760003560e01c806380f4513811610104578063b93f9b0a116100a2578063e777f90911610071578063e777f909146105af578063ef7bc28d146105cd578063f33fd2ac146105eb578063fe20bc0114610607576101da565b8063b93f9b0a14610500578063cbf78f4714610530578063df407a4e1461054e578063e209c7a31461057f576101da565b8063909d807d116100de578063909d807d1461047c578063983cf0f1146104ac5780639f52100c146104c8578063b8d34362146104e4576101da565b806380f45138146104285780638b18c1a8146104445780638ba1066114610460576101da565b806334ef551b1161017c578063515ac6c31161014b578063515ac6c31461038b578063567b83f5146103aa5780636316dbfc146103da5780636d55edde146103f8576101da565b806334ef551b1461030757806337f851221461032357806338492bb71461033f5780633f442fa21461036f576101da565b806308c0d491116101b857806308c0d4911461025b578063121a1fec1461027757806312399d88146102a75780631d832284146102d7576101da565b80630338335e146101df578063043532dc146101fb5780630494cd9a1461022b575b600080fd5b6101f960048036038101906101f49190611c1f565b610637565b005b61021560048036038101906102109190611c5b565b610746565b6040516102229190611e11565b60405180910390f35b61024560048036038101906102409190611bf6565b6107b3565b6040516102529190611e11565b60405180910390f35b61027560048036038101906102709190611bf6565b6107e6565b005b610291600480360381019061028c9190611bf6565b610942565b60405161029e9190611e2c565b60405180910390f35b6102c160048036038101906102bc9190611c5b565b610a36565b6040516102ce9190611e11565b60405180910390f35b6102f160048036038101906102ec9190611bf6565b610a6c565b6040516102fe9190611e11565b60405180910390f35b610321600480360381019061031c9190611bf6565b610ad5565b005b61033d60048036038101906103389190611bf6565b610b3b565b005b61035960048036038101906103549190611bf6565b610bc1565b6040516103669190611e2c565b60405180910390f35b61038960048036038101906103849190611bf6565b610c42565b005b610393610e16565b6040516103a1929190611e4e565b60405180910390f35b6103c460048036038101906103bf9190611bf6565b610eb4565b6040516103d19190611e9e565b60405180910390f35b6103e2610fc8565b6040516103ef9190611ec0565b60405180910390f35b610412600480360381019061040d9190611bf6565b610fce565b60405161041f9190611e9e565b60405180910390f35b610442600480360381019061043d9190611bf6565b6110ea565b005b61045e60048036038101906104599190611c1f565b611182565b005b61047a60048036038101906104759190611bf6565b6112f4565b005b61049660048036038101906104919190611bf6565b61140e565b6040516104a39190611ec0565b60405180910390f35b6104c660048036038101906104c19190611c1f565b61142c565b005b6104e260048036038101906104dd9190611bf6565b6114ae565b005b6104fe60048036038101906104f99190611bf6565b611514565b005b61051a60048036038101906105159190611c5b565b611630565b6040516105279190611e11565b60405180910390f35b6105386116e5565b6040516105459190611ec0565b60405180910390f35b61056860048036038101906105639190611bf6565b6116f1565b604051610576929190611e4e565b60405180910390f35b61059960048036038101906105949190611c5b565b61180b565b6040516105a69190611e11565b60405180910390f35b6105b761184a565b6040516105c49190611e9e565b60405180910390f35b6105d56118eb565b6040516105e29190611ec0565b60405180910390f35b61060560048036038101906106009190611bf6565b6118f8565b005b610621600480360381019061061c9190611bf6565b611a1a565b60405161062e9190611e9e565b60405180910390f35b42600d60008373ffffffffffffffffffffffffffffffffffffffff1673ffffffffffffffffffffffffffffffffffffffff1681526020019081526020016000206001018190555081600d60008373ffffffffffffffffffffffffffffffffffffffff1673ffffffffffffffffffffffffffffffffffffffff1681526020019081526020016000206000016000815481106106fa577f4e487b7100000000000000000000000000000000000000000000000000000000600052603260045260246000fd5b9060005260206000200160006101000a81548173ffffffffffffffffffffffffffffffffffffffff021916908373ffffffffffffffffffffffffffffffffffffffff1602179055505050565b6000808281548110610781577f4e487b7100000000000000000000000000000000000000000000000000000000600052603260045260246000fd5b9060005260206000200160009054906101000a900473ffffffffffffffffffffffffffffffffffffffff169050919050565b600b6020528060005260406000206000915054906101000a900473ffffffffffffffffffffffffffffffffffffffff1681565b6000600167ffffffffffffffff811115610829577f4e487b7100000000000000000000000000000000000000000000000000000000600052604160045260246000fd5b6040519080825280602002602001820160405280156108575781602001602082028036833780820191505090505b5090508181600081518110610895577f4e487b7100000000000000000000000000000000000000000000000000000000600052603260045260246000fd5b602002602001019073ffffffffffffffffffffffffffffffffffffffff16908173ffffffffffffffffffffffffffffffffffffffff168152505060006040518060400160405280838152602001428152509050600c8190806001815401808255809150506001900390600052602060002090600202016000909190919091506000820151816000019080519060200190610930929190611b0b565b50602082015181600101555050505050565b60606000600167ffffffffffffffff811115610987577f4e487b7100000000000000000000000000000000000000000000000000000000600052604160045260246000fd5b6040519080825280602002602001820160405280156109b55781602001602082028036833780820191505090505b50905082816000815181106109f3577f4e487b7100000000000000000000000000000000000000000000000000000000600052603260045260246000fd5b602002602001019073ffffffffffffffffffffffffffffffffffffffff16908173ffffffffffffffffffffffffffffffffffffffff168152505080915050919050565b60028160088110610a4657600080fd5b016000915054906101000a900473ffffffffffffffffffffffffffffffffffffffff1681565b6000600b60008373ffffffffffffffffffffffffffffffffffffffff1673ffffffffffffffffffffffffffffffffffffffff16815260200190815260200160002060009054906101000a900473ffffffffffffffffffffffffffffffffffffffff169050919050565b6000819080600181540180825580915050600190039060005260206000200160009091909190916101000a81548173ffffffffffffffffffffffffffffffffffffffff021916908373ffffffffffffffffffffffffffffffffffffffff16021790555050565b8060008081548110610b76577f4e487b7100000000000000000000000000000000000000000000000000000000600052603260045260246000fd5b9060005260206000200160006101000a81548173ffffffffffffffffffffffffffffffffffffffff021916908373ffffffffffffffffffffffffffffffffffffffff16021790555050565b6060808281600081518110610bff577f4e487b7100000000000000000000000000000000000000000000000000000000600052603260045260246000fd5b602002602001019073ffffffffffffffffffffffffffffffffffffffff16908173ffffffffffffffffffffffffffffffffffffffff168152505080915050919050565b6000600167ffffffffffffffff811115610c85577f4e487b7100000000000000000000000000000000000000000000000000000000600052604160045260246000fd5b604051908082528060200260200182016040528015610cb35781602001602082028036833780820191505090505b5090506000604051806040016040528083815260200142815250905080600c600081548110610d0b577f4e487b7100000000000000000000000000000000000000000000000000000000600052603260045260246000fd5b90600052602060002090600202016000820151816000019080519060200190610d35929190611b0b565b506020820151816001015590505082600c600081548110610d7f577f4e487b7100000000000000000000000000000000000000000000000000000000600052603260045260246000fd5b9060005260206000209060020201600001600081548110610dc9577f4e487b7100000000000000000000000000000000000000000000000000000000600052603260045260246000fd5b9060005260206000200160006101000a81548173ffffffffffffffffffffffffffffffffffffffff021916908373ffffffffffffffffffffffffffffffffffffffff160217905550505050565b60606000806040518060400160405280600167ffffffffffffffff811115610e67577f4e487b7100000000000000000000000000000000000000000000000000000000600052604160045260246000fd5b604051908082528060200260200182016040528015610e955781602001602082028036833780820191505090505b5081526020014281525090508060000151816020015192509250509091565b610ebc611b95565b6000600167ffffffffffffffff811115610eff577f4e487b7100000000000000000000000000000000000000000000000000000000600052604160045260246000fd5b604051908082528060200260200182016040528015610f2d5781602001602082028036833780820191505090505b5090508281600081518110610f6b577f4e487b7100000000000000000000000000000000000000000000000000000000600052603260045260246000fd5b602002602001019073ffffffffffffffffffffffffffffffffffffffff16908173ffffffffffffffffffffffffffffffffffffffff1681525050600060405180604001604052808381526020014281525090508092505050919050565b600a5481565b610fd6611b95565b60006040518060400160405280600167ffffffffffffffff811115611024577f4e487b7100000000000000000000000000000000000000000000000000000000600052604160045260246000fd5b6040519080825280602002602001820160405280156110525781602001602082028036833780820191505090505b508152602001428152509050428160200181815250508281600001516000815181106110a7577f4e487b7100000000000000000000000000000000000000000000000000000000600052603260045260246000fd5b602002602001019073ffffffffffffffffffffffffffffffffffffffff16908173ffffffffffffffffffffffffffffffffffffffff168152505080915050919050565b6000600a549050816002826008811061112c577f4e487b7100000000000000000000000000000000000000000000000000000000600052603260045260246000fd5b0160006101000a81548173ffffffffffffffffffffffffffffffffffffffff021916908373ffffffffffffffffffffffffffffffffffffffff1602179055506001816111789190611f36565b600a819055505050565b6000600167ffffffffffffffff8111156111c5577f4e487b7100000000000000000000000000000000000000000000000000000000600052604160045260246000fd5b6040519080825280602002602001820160405280156111f35781602001602082028036833780820191505090505b5090508281600081518110611231577f4e487b7100000000000000000000000000000000000000000000000000000000600052603260045260246000fd5b602002602001019073ffffffffffffffffffffffffffffffffffffffff16908173ffffffffffffffffffffffffffffffffffffffff16815250506000604051806040016040528083815260200142815250905080600d60008573ffffffffffffffffffffffffffffffffffffffff1673ffffffffffffffffffffffffffffffffffffffff16815260200190815260200160002060008201518160000190805190602001906112e0929190611b0b565b506020820151816001015590505050505050565b60008080549050141561138857600167ffffffffffffffff811115611342577f4e487b7100000000000000000000000000000000000000000000000000000000600052604160045260246000fd5b6040519080825280602002602001820160405280156113705781602001602082028036833780820191505090505b5060009080519060200190611386929190611b0b565b505b80600080815481106113c3577f4e487b7100000000000000000000000000000000000000000000000000000000600052603260045260246000fd5b9060005260206000200160006101000a81548173ffffffffffffffffffffffffffffffffffffffff021916908373ffffffffffffffffffffffffffffffffffffffff16021790555050565b600d6020528060005260406000206000915090508060010154905081565b81600b60008373ffffffffffffffffffffffffffffffffffffffff1673ffffffffffffffffffffffffffffffffffffffff16815260200190815260200160002060006101000a81548173ffffffffffffffffffffffffffffffffffffffff021916908373ffffffffffffffffffffffffffffffffffffffff1602179055505050565b6001819080600181540180825580915050600190039060005260206000200160009091909190916101000a81548173ffffffffffffffffffffffffffffffffffffffff021916908373ffffffffffffffffffffffffffffffffffffffff16021790555050565b600060018054905014156115a957600167ffffffffffffffff811115611563577f4e487b7100000000000000000000000000000000000000000000000000000000600052604160045260246000fd5b6040519080825280602002602001820160405280156115915781602001602082028036833780820191505090505b50600190805190602001906115a7929190611b0b565b505b8060016000815481106115e5577f4e487b7100000000000000000000000000000000000000000000000000000000600052603260045260246000fd5b9060005260206000200160006101000a81548173ffffffffffffffffffffffffffffffffffffffff021916908373ffffffffffffffffffffffffffffffffffffffff16021790555050565b60008160008054905011611679576040517f08c379a000000000000000000000000000000000000000000000000000000000815260040161167090611e7e565b60405180910390fd5b600082815481106116b3577f4e487b7100000000000000000000000000000000000000000000000000000000600052603260045260246000fd5b9060005260206000200160009054906101000a900473ffffffffffffffffffffffffffffffffffffffff169050919050565b60008080549050905090565b6060600080600167ffffffffffffffff811115611737577f4e487b7100000000000000000000000000000000000000000000000000000000600052604160045260246000fd5b6040519080825280602002602001820160405280156117655781602001602082028036833780820191505090505b50905083816000815181106117a3577f4e487b7100000000000000000000000000000000000000000000000000000000600052603260045260246000fd5b602002602001019073ffffffffffffffffffffffffffffffffffffffff16908173ffffffffffffffffffffffffffffffffffffffff16815250506000604051806040016040528083815260200142815250905080600001518160200151935093505050915091565b6001818154811061181b57600080fd5b906000526020600020016000915054906101000a900473ffffffffffffffffffffffffffffffffffffffff1681565b611852611b95565b60006040518060400160405280600167ffffffffffffffff8111156118a0577f4e487b7100000000000000000000000000000000000000000000000000000000600052604160045260246000fd5b6040519080825280602002602001820160405280156118ce5781602001602082028036833780820191505090505b508152602001428152509050428160200181815250508091505090565b6000600180549050905090565b42600c600081548110611934577f4e487b7100000000000000000000000000000000000000000000000000000000600052603260045260246000fd5b90600052602060002090600202016001018190555080600c600081548110611985577f4e487b7100000000000000000000000000000000000000000000000000000000600052603260045260246000fd5b90600052602060002090600202016000016000815481106119cf577f4e487b7100000000000000000000000000000000000000000000000000000000600052603260045260246000fd5b9060005260206000200160006101000a81548173ffffffffffffffffffffffffffffffffffffffff021916908373ffffffffffffffffffffffffffffffffffffffff16021790555050565b611a22611b95565b600d60008373ffffffffffffffffffffffffffffffffffffffff1673ffffffffffffffffffffffffffffffffffffffff16815260200190815260200160002060405180604001604052908160008201805480602002602001604051908101604052809291908181526020018280548015611af157602002820191906000526020600020905b8160009054906101000a900473ffffffffffffffffffffffffffffffffffffffff1673ffffffffffffffffffffffffffffffffffffffff1681526020019060010190808311611aa7575b505050505081526020016001820154815250509050919050565b828054828255906000526020600020908101928215611b84579160200282015b82811115611b835782518260006101000a81548173ffffffffffffffffffffffffffffffffffffffff021916908373ffffffffffffffffffffffffffffffffffffffff16021790555091602001919060010190611b2b565b5b509050611b919190611baf565b5090565b604051806040016040528060608152602001600081525090565b5b80821115611bc8576000816000905550600101611bb0565b5090565b600081359050611bdb81611ff7565b92915050565b600081359050611bf08161200e565b92915050565b600060208284031215611c0857600080fd5b6000611c1684828501611bcc565b91505092915050565b60008060408385031215611c3257600080fd5b6000611c4085828601611bcc565b9250506020611c5185828601611bcc565b9150509250929050565b600060208284031215611c6d57600080fd5b6000611c7b84828501611be1565b91505092915050565b6000611c908383611c9c565b60208301905092915050565b611ca581611f8c565b82525050565b611cb481611f8c565b82525050565b6000611cc582611eeb565b611ccf8185611f03565b9350611cda83611edb565b8060005b83811015611d0b578151611cf28882611c84565b9750611cfd83611ef6565b925050600181019050611cde565b5085935050505092915050565b6000611d2382611eeb565b611d2d8185611f14565b9350611d3883611edb565b8060005b83811015611d69578151611d508882611c84565b9750611d5b83611ef6565b925050600181019050611d3c565b5085935050505092915050565b6000611d83601483611f25565b91507f6f7574206f6620616464726573732061727261790000000000000000000000006000830152602082019050919050565b60006040830160008301518482036000860152611dd38282611cba565b9150506020830151611de86020860182611df3565b508091505092915050565b611dfc81611fbe565b82525050565b611e0b81611fbe565b82525050565b6000602082019050611e266000830184611cab565b92915050565b60006020820190508181036000830152611e468184611d18565b905092915050565b60006040820190508181036000830152611e688185611d18565b9050611e776020830184611e02565b9392505050565b60006020820190508181036000830152611e9781611d76565b9050919050565b60006020820190508181036000830152611eb88184611db6565b905092915050565b6000602082019050611ed56000830184611e02565b92915050565b6000819050602082019050919050565b600081519050919050565b6000602082019050919050565b600082825260208201905092915050565b600082825260208201905092915050565b600082825260208201905092915050565b6000611f4182611fbe565b9150611f4c83611fbe565b9250827fffffffffffffffffffffffffffffffffffffffffffffffffffffffffffffffff03821115611f8157611f80611fc8565b5b828201905092915050565b6000611f9782611f9e565b9050919050565b600073ffffffffffffffffffffffffffffffffffffffff82169050919050565b6000819050919050565b7f4e487b7100000000000000000000000000000000000000000000000000000000600052601160045260246000fd5b61200081611f8c565b811461200b57600080fd5b50565b61201781611fbe565b811461202257600080fd5b5056fea2646970667358221220051f73f91bb03a4f649cc8912df621eacdc62b929b6c4bac2d4612e18275d50e64736f6c63430008000033",
  "linkReferences": {},
  "deployedLinkReferences": {}
}